{
  "transactions": [
    {
      "hash": "0xd1a299cf7053daed983f32f2ae625c3740a2f206589528d8298d734040d71912",
      "transactionType": "CALL",
      "contractName": null,
      "contractAddress": "0x62b8b11039fcfe5ab0c56e502b1c372a3d2a9c7a",
      "function": "approve(address,uint256)",
      "arguments": [
        "0xd72F43Ee820408daBa4D385EEFB267eB0e5C84Ee",
        "3180000000000000000"
      ],
      "transaction": {
        "from": "0xff39d794eed46af21cf503f3bc8c98256cce76dc",
        "to": "0x62b8b11039fcfe5ab0c56e502b1c372a3d2a9c7a",
        "gas": "0x1149d",
        "value": "0x0",
        "input": "0x095ea7b3000000000000000000000000d72f43ee820408daba4d385eefb267eb0e5c84ee0000000000000000000000000000000000000000000000002c21a126d1be0000",
        "nonce": "0x54",
        "chainId": "0xa4ec"
      },
      "additionalContracts": [],
      "isFixedGasLimit": false
    },
    {
      "hash": "0x12e62ac55d2495fe78ecf6e41f8f918c729158f8c6f964193d11ca950be5e433",
      "transactionType": "CALL",
      "contractName": null,
      "contractAddress": "0xd72f43ee820408daba4d385eefb267eb0e5c84ee",
      "function": "createTask((string,string,string,uint256,address,uint32,uint64,uint8,string))",
      "arguments": [
        "(Your Task Title Here, Describe what workers need to do clearly and concisely., Survey, 1000000000000000000, 0x62B8B11039FcfE5aB0C56E502b1C372A3d2a9c7A, 3, 1782217627, 0, )"
      ],
      "transaction": {
        "from": "0xff39d794eed46af21cf503f3bc8c98256cce76dc",
        "to": "0xd72f43ee820408daba4d385eefb267eb0e5c84ee",
        "gas": "0xc9aa6",
        "value": "0x0",
        "input": "0xdad8583d00000000000000000000000000000000000000000000000000000000000000200000000000000000000000000000000000000000000000000000000000000120000000000000000000000000000000000000000000000000000000000000016000000000000000000000000000000000000000000000000000000000000001c00000000000000000000000000000000000000000000000000de0b6b3a764000000000000000000000000000062b8b11039fcfe5ab0c56e502b1c372a3d2a9c7a0000000000000000000000000000000000000000000000000000000000000003000000000000000000000000000000000000000000000000000000006a3a7b9b000000000000000000000000000000000000000000000000000000000000000000000000000000000000000000000000000000000000000000000000000002000000000000000000000000000000000000000000000000000000000000000014596f7572205461736b205469746c65204865726500000000000000000000000000000000000000000000000000000000000000000000000000000000000000374465736372696265207768617420776f726b657273206e65656420746f20646f20636c6561726c7920616e6420636f6e636973656c792e000000000000000000000000000000000000000000000000000000000000000000000000000000000653757276657900000000000000000000000000000000000000000000000000000000000000000000000000000000000000000000000000000000000000000000",
        "nonce": "0x55",
        "chainId": "0xa4ec"
      },
      "additionalContracts": [],
      "isFixedGasLimit": false
    }
  ],
  "receipts": [
    {
      "status": "0x1",
      "cumulativeGasUsed": "0x1be12e",
      "logs": [
        {
          "address": "0x62b8b11039fcfe5ab0c56e502b1c372a3d2a9c7a",
          "topics": [
            "0x8c5be1e5ebec7d5bd14f71427d1e84f3dd0314c0f7b2291e5b200ac8c7c3b925",
            "0x000000000000000000000000ff39d794eed46af21cf503f3bc8c98256cce76dc",
            "0x000000000000000000000000d72f43ee820408daba4d385eefb267eb0e5c84ee"
          ],
          "data": "0x0000000000000000000000000000000000000000000000002c21a126d1be0000",
          "blockHash": "0x62d9f5253cf297aa03b37e5e07838d11b09cb6a3997be2d250650ef46de6d18e",
          "blockNumber": "0x427b8de",
          "blockTimestamp": "0x6a314134",
          "transactionHash": "0xd1a299cf7053daed983f32f2ae625c3740a2f206589528d8298d734040d71912",
          "transactionIndex": "0x6",
          "logIndex": "0xce",
          "removed": false
        }
      ],
      "logsBloom": "0x00000000000000000000000000000000000000000000000000000000000000000008000000000000000000000000000000000000000000000000000000200000000000000000000000000000000000000000000000100000001000000000000000000000000000000000000000400000000000000000000000000000000000000000000000001080000000000000040000000000000000000000000000000000020000000000000000000000000000000000000000000000000000000000008000000000000000000000000000000000000000000000000000000000000000000010000000000000000000000000000000100000000000000000000000000000",
      "type": "0x0",
      "transactionHash": "0xd1a299cf7053daed983f32f2ae625c3740a2f206589528d8298d734040d71912",
      "transactionIndex": "0x6",
      "blockHash": "0x62d9f5253cf297aa03b37e5e07838d11b09cb6a3997be2d250650ef46de6d18e",
      "blockNumber": "0x427b8de",
      "gasUsed": "0xc844",
      "effectiveGasPrice": "0x2f25f0c900",
      "blobGasUsed": "0x64",
      "from": "0xff39d794eed46af21cf503f3bc8c98256cce76dc",
      "to": "0x62b8b11039fcfe5ab0c56e502b1c372a3d2a9c7a",
      "contractAddress": null,
      "daFootprintGasScalar": "0x1",
      "l1BaseFeeScalar": "0x0",
      "l1BlobBaseFee": "0x504d65",
      "l1BlobBaseFeeScalar": "0x0",
      "l1Fee": "0x0",
      "l1GasPrice": "0x52f12fe",
      "l1GasUsed": "0x640"
    },
    {
      "status": "0x1",
      "cumulativeGasUsed": "0x247f70",
      "logs": [
        {
          "address": "0x62b8b11039fcfe5ab0c56e502b1c372a3d2a9c7a",
          "topics": [
            "0x06b541ddaa720db2b10a4d0cdac39b8d360425fc073085fac19bc82614677987",
            "0x000000000000000000000000d72f43ee820408daba4d385eefb267eb0e5c84ee",
            "0x000000000000000000000000ff39d794eed46af21cf503f3bc8c98256cce76dc",
            "0x000000000000000000000000d72f43ee820408daba4d385eefb267eb0e5c84ee"
          ],
          "data": "0x0000000000000000000000000000000000000000000000002c21a126d1be00000000000000000000000000000000000000000000000000000000000000000060000000000000000000000000000000000000000000000000000000000000008000000000000000000000000000000000000000000000000000000000000000000000000000000000000000000000000000000000000000000000000000000000",
          "blockHash": "0x62d9f5253cf297aa03b37e5e07838d11b09cb6a3997be2d250650ef46de6d18e",
          "blockNumber": "0x427b8de",
          "blockTimestamp": "0x6a314134",
          "transactionHash": "0x12e62ac55d2495fe78ecf6e41f8f918c729158f8c6f964193d11ca950be5e433",
          "transactionIndex": "0x7",
          "logIndex": "0xcf",
          "removed": false
        },
        {
          "address": "0x62b8b11039fcfe5ab0c56e502b1c372a3d2a9c7a",
          "topics": [
            "0xddf252ad1be2c89b69c2b068fc378daa952ba7f163c4a11628f55a4df523b3ef",
            "0x000000000000000000000000ff39d794eed46af21cf503f3bc8c98256cce76dc",
            "0x000000000000000000000000d72f43ee820408daba4d385eefb267eb0e5c84ee"
          ],
          "data": "0x0000000000000000000000000000000000000000000000002c21a126d1be0000",
          "blockHash": "0x62d9f5253cf297aa03b37e5e07838d11b09cb6a3997be2d250650ef46de6d18e",
          "blockNumber": "0x427b8de",
          "blockTimestamp": "0x6a314134",
          "transactionHash": "0x12e62ac55d2495fe78ecf6e41f8f918c729158f8c6f964193d11ca950be5e433",
          "transactionIndex": "0x7",
          "logIndex": "0xd0",
          "removed": false
        },
        {
          "address": "0x62b8b11039fcfe5ab0c56e502b1c372a3d2a9c7a",
          "topics": [
            "0x8c5be1e5ebec7d5bd14f71427d1e84f3dd0314c0f7b2291e5b200ac8c7c3b925",
            "0x000000000000000000000000ff39d794eed46af21cf503f3bc8c98256cce76dc",
            "0x000000000000000000000000d72f43ee820408daba4d385eefb267eb0e5c84ee"
          ],
          "data": "0x0000000000000000000000000000000000000000000000000000000000000000",
          "blockHash": "0x62d9f5253cf297aa03b37e5e07838d11b09cb6a3997be2d250650ef46de6d18e",
          "blockNumber": "0x427b8de",
          "blockTimestamp": "0x6a314134",
          "transactionHash": "0x12e62ac55d2495fe78ecf6e41f8f918c729158f8c6f964193d11ca950be5e433",
          "transactionIndex": "0x7",
          "logIndex": "0xd1",
          "removed": false
        },
        {
          "address": "0xd72f43ee820408daba4d385eefb267eb0e5c84ee",
          "topics": [
            "0x9ea889c4508163d3292ea68f73c965bffaec4ebaedcd47fb584b4f4dd9eec178",
            "0x0000000000000000000000000000000000000000000000000000000000000001",
            "0x000000000000000000000000ff39d794eed46af21cf503f3bc8c98256cce76dc"
          ],
          "data": "0x00000000000000000000000000000000000000000000000000000000000000010000000000000000000000000000000000000000000000000de0b6b3a764000000000000000000000000000000000000000000000000000000000000000000030000000000000000000000000000000000000000000000000000000000000000",
          "blockHash": "0x62d9f5253cf297aa03b37e5e07838d11b09cb6a3997be2d250650ef46de6d18e",
          "blockNumber": "0x427b8de",
          "blockTimestamp": "0x6a314134",
          "transactionHash": "0x12e62ac55d2495fe78ecf6e41f8f918c729158f8c6f964193d11ca950be5e433",
          "transactionIndex": "0x7",
          "logIndex": "0xd2",
          "removed": false
        }
      ],
      "logsBloom": "0x00000000000000000000000000000000000000000000000000020000000000000008000000000000000000000000000000000000000000000000000000240010000000000020000000000008000000000000000000140000001000000000000000000000000000000000000000400000000000400000000000000050000000000000000000001080000000000000040000000000000000000000000000000000020000000100000000000000000000000000000000000000000000000000008000000002000000000000000000010000000000000000000000003000000040000010000000000000000000000000000000100000000000000000000000000000",
      "type": "0x0",
      "transactionHash": "0x12e62ac55d2495fe78ecf6e41f8f918c729158f8c6f964193d11ca950be5e433",
      "transactionIndex": "0x7",
      "blockHash": "0x62d9f5253cf297aa03b37e5e07838d11b09cb6a3997be2d250650ef46de6d18e",
      "blockNumber": "0x427b8de",
      "gasUsed": "0x89e42",
      "effectiveGasPrice": "0x2f25f0c900",
      "blobGasUsed": "0xd7",
      "from": "0xff39d794eed46af21cf503f3bc8c98256cce76dc",
      "to": "0xd72f43ee820408daba4d385eefb267eb0e5c84ee",
      "contractAddress": null,
      "daFootprintGasScalar": "0x1",
      "l1BaseFeeScalar": "0x0",
      "l1BlobBaseFee": "0x504d65",
      "l1BlobBaseFeeScalar": "0x0",
      "l1Fee": "0x0",
      "l1GasPrice": "0x52f12fe",
      "l1GasUsed": "0xd7e"
    }
  ],
  "libraries": [],
  "pending": [],
  "returns": {},
  "timestamp": 1781612850,
  "chain": 42220,
  "commit": "8c51c33"
}