{
  "transactions": [
    {
      "hash": "0x866ab920d481d7108168b699372cdecb82fd4fb5fb1c10a58d421c26316a6c77",
      "transactionType": "CALL",
      "contractName": null,
      "contractAddress": "0x851ab8d8428c574b5ba6473aaeee02c11fd6064b",
      "function": "createTask((string,string,string,uint256,address,uint32,uint64,uint8,string))",
      "arguments": [
        "(GoodDollar UBI Research Survey, Help us understand how people use GoodDollar UBI in their daily lives. Complete this short research survey (5-7 minutes): (1) How long have you been claiming G$? (2) What do you use G$ for? (3) Has GoodDollar UBI impacted your financial situation? (4) What improvements would you suggest? Submit your answers directly as your proof on-chain. Be honest and specific - vague answers will be rejected., Surveys & Research, 0, 0x0000000000000000000000000000000000000000, 10, 1781427131, 0, )"
      ],
      "transaction": {
        "from": "0xff39d794eed46af21cf503f3bc8c98256cce76dc",
        "to": "0x851ab8d8428c574b5ba6473aaeee02c11fd6064b",
        "gas": "0xad630",
        "value": "0x0",
        "input": "0xdad8583d000000000000000000000000000000000000000000000000000000000000002000000000000000000000000000000000000000000000000000000000000001200000000000000000000000000000000000000000000000000000000000000160000000000000000000000000000000000000000000000000000000000000032000000000000000000000000000000000000000000000000000000000000000000000000000000000000000000000000000000000000000000000000000000000000000000000000000000000000000000000000000000000000000000000000a000000000000000000000000000000000000000000000000000000006a2e6bbb00000000000000000000000000000000000000000000000000000000000000000000000000000000000000000000000000000000000000000000000000000360000000000000000000000000000000000000000000000000000000000000001e476f6f64446f6c6c617220554249205265736561726368205375727665790000000000000000000000000000000000000000000000000000000000000000018e48656c7020757320756e6465727374616e6420686f772070656f706c652075736520476f6f64446f6c6c61722055424920696e207468656972206461696c79206c697665732e20436f6d706c65746520746869732073686f7274207265736561726368207375727665792028352d37206d696e75746573293a2028312920486f77206c6f6e67206861766520796f75206265656e20636c61696d696e672047243f20283229205768617420646f20796f752075736520472420666f723f202833292048617320476f6f64446f6c6c61722055424920696d70616374656420796f75722066696e616e6369616c20736974756174696f6e3f20283429205768617420696d70726f76656d656e747320776f756c6420796f7520737567676573743f205375626d697420796f757220616e7377657273206469726563746c7920617320796f75722070726f6f66206f6e2d636861696e2e20426520686f6e65737420616e64207370656369666963202d20766167756520616e73776572732077696c6c2062652072656a65637465642e000000000000000000000000000000000000000000000000000000000000000000000000000000000000000000000000001253757276657973202620526573656172636800000000000000000000000000000000000000000000000000000000000000000000000000000000000000000000",
        "nonce": "0x3d",
        "chainId": "0xa4ec"
      },
      "additionalContracts": [],
      "isFixedGasLimit": false
    }
  ],
  "receipts": [
    {
      "status": "0x1",
      "cumulativeGasUsed": "0x1cbe2c",
      "logs": [
        {
          "address": "0x851ab8d8428c574b5ba6473aaeee02c11fd6064b",
          "topics": [
            "0x9ea889c4508163d3292ea68f73c965bffaec4ebaedcd47fb584b4f4dd9eec178",
            "0x0000000000000000000000000000000000000000000000000000000000000001",
            "0x000000000000000000000000ff39d794eed46af21cf503f3bc8c98256cce76dc"
          ],
          "data": "0x00000000000000000000000000000000000000000000000000000000000000000000000000000000000000000000000000000000000000000000000000000000000000000000000000000000000000000000000000000000000000000000000a0000000000000000000000000000000000000000000000000000000000000000",
          "blockHash": "0xb3c53340a3128d422cacfecdb6d0979759d65b3005ca4fc677f74ba137506b56",
          "blockNumber": "0x41ba8f4",
          "blockTimestamp": "0x6a25314a",
          "transactionHash": "0x866ab920d481d7108168b699372cdecb82fd4fb5fb1c10a58d421c26316a6c77",
          "transactionIndex": "0x2",
          "logIndex": "0xc8",
          "removed": false
        }
      ],
      "logsBloom": "0x00000000000000000000000000000000000000000000000000000000000000000008000000000000000000000000000000000000000000000000000000040000000000000020000000000000000000000000000000040000000000000000000000000000000000000000000400400000020000000000000000000040020000000000000000000000000000000000000000000000000000000000000000000000000000000000000000000000000000000000000000000000000000000000000000000000000000000000000000000000000000000000000000001000000040000000000000000000000000000000000000100000000000000000000000000000",
      "type": "0x0",
      "transactionHash": "0x866ab920d481d7108168b699372cdecb82fd4fb5fb1c10a58d421c26316a6c77",
      "transactionIndex": "0x2",
      "blockHash": "0xb3c53340a3128d422cacfecdb6d0979759d65b3005ca4fc677f74ba137506b56",
      "blockNumber": "0x41ba8f4",
      "gasUsed": "0x7d877",
      "effectiveGasPrice": "0x2f25f0c900",
      "blobGasUsed": "0x1b3",
      "from": "0xff39d794eed46af21cf503f3bc8c98256cce76dc",
      "to": "0x851ab8d8428c574b5ba6473aaeee02c11fd6064b",
      "contractAddress": null,
      "daFootprintGasScalar": "0x1",
      "l1BaseFeeScalar": "0x0",
      "l1BlobBaseFee": "0x565416",
      "l1BlobBaseFeeScalar": "0x0",
      "l1Fee": "0x0",
      "l1GasPrice": "0x6d17e78",
      "l1GasUsed": "0x1b3e"
    }
  ],
  "libraries": [],
  "pending": [],
  "returns": {},
  "timestamp": 1780822348,
  "chain": 42220,
  "commit": "94218e1"
}