{
  "transactions": [
    {
      "hash": "0x019720a51469618c141f00fc6195c439ec156783c748f24f98c1628221298c68",
      "transactionType": "CALL",
      "contractName": null,
      "contractAddress": "0x890075515df73a09847a143f2b4b8579167d5539",
      "function": "approve(address,uint256)",
      "arguments": [
        "0xF93aD36d15378Bb60F90e505447dd7ed5877D315",
        "700660000000000000000"
      ],
      "transaction": {
        "from": "0x8b3ecf29f52c6c4943dbad4f34d8b79077c238dd",
        "to": "0x890075515df73a09847a143f2b4b8579167d5539",
        "gas": "0x10aea",
        "value": "0x0",
        "input": "0x095ea7b3000000000000000000000000f93ad36d15378bb60f90e505447dd7ed5877d315000000000000000000000000000000000000000000000025fb9c5dbe85320000",
        "nonce": "0x9",
        "chainId": "0xaa044c"
      },
      "additionalContracts": [],
      "isFixedGasLimit": false
    },
    {
      "hash": "0x676c490d29c7b5f2c42c639b20da2a1c3cfeeed2752997517477b21b8323356b",
      "transactionType": "CALL",
      "contractName": null,
      "contractAddress": "0xf93ad36d15378bb60f90e505447dd7ed5877d315",
      "function": "createTask((string,string,string,uint256,address,uint32,uint64,uint8,string))",
      "arguments": [
        "(Photograph First Bank Branch - Broad Street Lagos, Visit the First Bank branch on Broad Street, Lagos Island. Take 3 clear photos: (1) exterior signage, (2) entrance, (3) operational hours board. Confirm the branch is open. GPS metadata must be enabled on your phone camera., Photo Verification, 25000000000000000000, 0x890075515Df73A09847a143F2B4b8579167D5539, 5, 1779995803, 1, https://forms.gle/testVerko001)"
      ],
      "transaction": {
        "from": "0x8b3ecf29f52c6c4943dbad4f34d8b79077c238dd",
        "to": "0xf93ad36d15378bb60f90e505447dd7ed5877d315",
        "gas": "0xcae70",
        "value": "0x0",
        "input": "0xdad8583d00000000000000000000000000000000000000000000000000000000000000200000000000000000000000000000000000000000000000000000000000000120000000000000000000000000000000000000000000000000000000000000018000000000000000000000000000000000000000000000000000000000000002800000000000000000000000000000000000000000000000015af1d78b58c40000000000000000000000000000890075515df73a09847a143f2b4b8579167d55390000000000000000000000000000000000000000000000000000000000000005000000000000000000000000000000000000000000000000000000006a18949b000000000000000000000000000000000000000000000000000000000000000100000000000000000000000000000000000000000000000000000000000002c0000000000000000000000000000000000000000000000000000000000000003150686f746f67726170682046697273742042616e6b204272616e6368202d2042726f616420537472656574204c61676f7300000000000000000000000000000000000000000000000000000000000000000000000000000000000000000000df5669736974207468652046697273742042616e6b206272616e6368206f6e2042726f6164205374726565742c204c61676f732049736c616e642e2054616b65203320636c6561722070686f746f733a20283129206578746572696f72207369676e6167652c2028322920656e7472616e63652c20283329206f7065726174696f6e616c20686f75727320626f6172642e20436f6e6669726d20746865206272616e6368206973206f70656e2e20475053206d65746164617461206d75737420626520656e61626c6564206f6e20796f75722070686f6e652063616d6572612e00000000000000000000000000000000000000000000000000000000000000001250686f746f20566572696669636174696f6e0000000000000000000000000000000000000000000000000000000000000000000000000000000000000000001e68747470733a2f2f666f726d732e676c652f746573745665726b6f3030310000",
        "nonce": "0xa",
        "chainId": "0xaa044c"
      },
      "additionalContracts": [],
      "isFixedGasLimit": false
    },
    {
      "hash": "0xaa98dfbb56e491186548f74fd60dade3792ef839451f5a1c3805f2e57a787617",
      "transactionType": "CALL",
      "contractName": null,
      "contractAddress": "0xf93ad36d15378bb60f90e505447dd7ed5877d315",
      "function": "createTask((string,string,string,uint256,address,uint32,uint64,uint8,string))",
      "arguments": [
        "(Market Price Survey - Makola Market Accra, Record current prices for: tomatoes (per kg), onions (per bag), fresh pepper (per kg), plantain (per bunch). Survey at least 5 vendors and report the price range., Survey & Research, 18000000000000000000, 0x890075515Df73A09847a143F2B4b8579167D5539, 10, 1780168603, 2, survey@verkotest.io)"
      ],
      "transaction": {
        "from": "0x8b3ecf29f52c6c4943dbad4f34d8b79077c238dd",
        "to": "0xf93ad36d15378bb60f90e505447dd7ed5877d315",
        "gas": "0xa6791",
        "value": "0x0",
        "input": "0xdad8583d0000000000000000000000000000000000000000000000000000000000000020000000000000000000000000000000000000000000000000000000000000012000000000000000000000000000000000000000000000000000000000000001800000000000000000000000000000000000000000000000000000000000000260000000000000000000000000000000000000000000000000f9ccd8a1c5080000000000000000000000000000890075515df73a09847a143f2b4b8579167d5539000000000000000000000000000000000000000000000000000000000000000a000000000000000000000000000000000000000000000000000000006a1b379b000000000000000000000000000000000000000000000000000000000000000200000000000000000000000000000000000000000000000000000000000002a000000000000000000000000000000000000000000000000000000000000000294d61726b657420507269636520537572766579202d204d616b6f6c61204d61726b6574204163637261000000000000000000000000000000000000000000000000000000000000000000000000000000000000000000000000000000000000a25265636f72642063757272656e742070726963657320666f723a20746f6d61746f65732028706572206b67292c206f6e696f6e73202870657220626167292c206672657368207065707065722028706572206b67292c20706c616e7461696e20287065722062756e6368292e20537572766579206174206c6561737420352076656e646f727320616e64207265706f7274207468652070726963652072616e67652e000000000000000000000000000000000000000000000000000000000000000000000000000000000000000000000000000000000000000000000000001153757276657920262052657365617263680000000000000000000000000000000000000000000000000000000000000000000000000000000000000000000013737572766579407665726b6f746573742e696f00000000000000000000000000",
        "nonce": "0xb",
        "chainId": "0xaa044c"
      },
      "additionalContracts": [],
      "isFixedGasLimit": false
    },
    {
      "hash": "0xe78649fa6e40f3254f8218eafeb0fbb75cdde90dcdaa0e7b0f12b65f395f0537",
      "transactionType": "CALL",
      "contractName": null,
      "contractAddress": "0xf93ad36d15378bb60f90e505447dd7ed5877d315",
      "function": "createTask((string,string,string,uint256,address,uint32,uint64,uint8,string))",
      "arguments": [
        "(Translate Financial Literacy Text into Amharic, Translate the provided English passage (400 words) about basic budgeting into Amharic. Native or fluent Amharic speakers only. Paste your translation directly as your proof., Translation, 30000000000000000000, 0x890075515Df73A09847a143F2B4b8579167D5539, 3, 1779909403, 0, )"
      ],
      "transaction": {
        "from": "0x8b3ecf29f52c6c4943dbad4f34d8b79077c238dd",
        "to": "0xf93ad36d15378bb60f90e505447dd7ed5877d315",
        "gas": "0xa90f1",
        "value": "0x0",
        "input": "0xdad8583d0000000000000000000000000000000000000000000000000000000000000020000000000000000000000000000000000000000000000000000000000000012000000000000000000000000000000000000000000000000000000000000001800000000000000000000000000000000000000000000000000000000000000260000000000000000000000000000000000000000000000001a055690d9db80000000000000000000000000000890075515df73a09847a143f2b4b8579167d55390000000000000000000000000000000000000000000000000000000000000003000000000000000000000000000000000000000000000000000000006a17431b000000000000000000000000000000000000000000000000000000000000000000000000000000000000000000000000000000000000000000000000000002a0000000000000000000000000000000000000000000000000000000000000002e5472616e736c6174652046696e616e6369616c204c69746572616379205465787420696e746f20416d686172696300000000000000000000000000000000000000000000000000000000000000000000000000000000000000000000000000ad5472616e736c617465207468652070726f766964656420456e676c6973682070617373616765202834303020776f726473292061626f757420626173696320627564676574696e6720696e746f20416d68617269632e204e6174697665206f7220666c75656e7420416d686172696320737065616b657273206f6e6c792e20506173746520796f7572207472616e736c6174696f6e206469726563746c7920617320796f75722070726f6f662e00000000000000000000000000000000000000000000000000000000000000000000000000000000000000000000000000000b5472616e736c6174696f6e0000000000000000000000000000000000000000000000000000000000000000000000000000000000000000000000000000000000",
        "nonce": "0xc",
        "chainId": "0xaa044c"
      },
      "additionalContracts": [],
      "isFixedGasLimit": false
    },
    {
      "hash": "0x2bbaf63b839ab3e5c873e66012d5dbc12d214c917a71f902cab52d19daa67936",
      "transactionType": "CALL",
      "contractName": null,
      "contractAddress": "0xf93ad36d15378bb60f90e505447dd7ed5877d315",
      "function": "createTask((string,string,string,uint256,address,uint32,uint64,uint8,string))",
      "arguments": [
        "(Record 50 Hausa Phrases - Audio Dataset, Read and record 50 Hausa phrases. Requirements: clear audio, no background noise, MP3 format, 128kbps minimum. Upload all files as a .zip and paste the shareable link., AI Training Data, 22000000000000000000, 0x890075515Df73A09847a143F2B4b8579167D5539, 8, 1780341403, 4, Upload your .zip to Google Drive, make it shareable, and paste the link here.)"
      ],
      "transaction": {
        "from": "0x8b3ecf29f52c6c4943dbad4f34d8b79077c238dd",
        "to": "0xf93ad36d15378bb60f90e505447dd7ed5877d315",
        "gas": "0xc8644",
        "value": "0x0",
        "input": "0xdad8583d0000000000000000000000000000000000000000000000000000000000000020000000000000000000000000000000000000000000000000000000000000012000000000000000000000000000000000000000000000000000000000000001800000000000000000000000000000000000000000000000000000000000000260000000000000000000000000000000000000000000000001314fb37062980000000000000000000000000000890075515df73a09847a143f2b4b8579167d55390000000000000000000000000000000000000000000000000000000000000008000000000000000000000000000000000000000000000000000000006a1dda9b000000000000000000000000000000000000000000000000000000000000000400000000000000000000000000000000000000000000000000000000000002a000000000000000000000000000000000000000000000000000000000000000275265636f72642035302048617573612050687261736573202d20417564696f20446174617365740000000000000000000000000000000000000000000000000000000000000000000000000000000000000000000000000000000000000000a75265616420616e64207265636f726420353020486175736120706872617365732e20526571756972656d656e74733a20636c65617220617564696f2c206e6f206261636b67726f756e64206e6f6973652c204d503320666f726d61742c203132386b627073206d696e696d756d2e2055706c6f616420616c6c2066696c65732061732061202e7a697020616e642070617374652074686520736861726561626c65206c696e6b2e000000000000000000000000000000000000000000000000000000000000000000000000000000000000000000000000000000000000000010414920547261696e696e67204461746100000000000000000000000000000000000000000000000000000000000000000000000000000000000000000000004d55706c6f616420796f7572202e7a697020746f20476f6f676c652044726976652c206d616b6520697420736861726561626c652c20616e6420706173746520746865206c696e6b20686572652e00000000000000000000000000000000000000",
        "nonce": "0xd",
        "chainId": "0xaa044c"
      },
      "additionalContracts": [],
      "isFixedGasLimit": false
    },
    {
      "hash": "0xf8da00cb5a72b4abfffaf163e976218f7707a95de8f0442366389c2c0943b4db",
      "transactionType": "CALL",
      "contractName": null,
      "contractAddress": "0xf93ad36d15378bb60f90e505447dd7ed5877d315",
      "function": "createTask((string,string,string,uint256,address,uint32,uint64,uint8,string))",
      "arguments": [
        "(Share GoodDollar Awareness Post in Community Groups, Share the GoodDollar introduction message in at least 3 WhatsApp or Telegram community groups. Screenshot each share and paste the confirmation text as your proof. Volunteer task., Community Outreach, 0, 0x0000000000000000000000000000000000000000, 20, 1780082203, 0, )"
      ],
      "transaction": {
        "from": "0x8b3ecf29f52c6c4943dbad4f34d8b79077c238dd",
        "to": "0xf93ad36d15378bb60f90e505447dd7ed5877d315",
        "gas": "0x88aff",
        "value": "0x0",
        "input": "0xdad8583d0000000000000000000000000000000000000000000000000000000000000020000000000000000000000000000000000000000000000000000000000000012000000000000000000000000000000000000000000000000000000000000001800000000000000000000000000000000000000000000000000000000000000260000000000000000000000000000000000000000000000000000000000000000000000000000000000000000000000000000000000000000000000000000000000000000000000000000000000000000000000000000000000000000000000014000000000000000000000000000000000000000000000000000000006a19e61b000000000000000000000000000000000000000000000000000000000000000000000000000000000000000000000000000000000000000000000000000002a00000000000000000000000000000000000000000000000000000000000000033536861726520476f6f64446f6c6c61722041776172656e65737320506f737420696e20436f6d6d756e6974792047726f7570730000000000000000000000000000000000000000000000000000000000000000000000000000000000000000b353686172652074686520476f6f64446f6c6c617220696e74726f64756374696f6e206d65737361676520696e206174206c656173742033205768617473417070206f722054656c656772616d20636f6d6d756e6974792067726f7570732e2053637265656e73686f74206561636820736861726520616e642070617374652074686520636f6e6669726d6174696f6e207465787420617320796f75722070726f6f662e20566f6c756e74656572207461736b2e000000000000000000000000000000000000000000000000000000000000000000000000000000000000000012436f6d6d756e697479204f7574726561636800000000000000000000000000000000000000000000000000000000000000000000000000000000000000000000",
        "nonce": "0xe",
        "chainId": "0xaa044c"
      },
      "additionalContracts": [],
      "isFixedGasLimit": false
    },
    {
      "hash": "0x3eaae7bd9fe8dbafdf3cfd053a42a79d628e672e699466b04598065fc7a30f96",
      "transactionType": "CALL",
      "contractName": null,
      "contractAddress": "0xf93ad36d15378bb60f90e505447dd7ed5877d315",
      "function": "createTask((string,string,string,uint256,address,uint32,uint64,uint8,string))",
      "arguments": [
        "(Test Jumia Nigeria Checkout Flow on Mobile, On your Android phone: visit jumia.com.ng, search a product, add to cart, go to checkout (do NOT complete purchase), screenshot each step. Post a thread on X/Twitter with your findings, tagging @verkoapp., Mystery Shopping, 15000000000000000000, 0x890075515Df73A09847a143F2B4b8579167D5539, 6, 1779909403, 3, Post on X/Twitter tagging @verkoapp and paste your tweet URL here.)"
      ],
      "transaction": {
        "from": "0x8b3ecf29f52c6c4943dbad4f34d8b79077c238dd",
        "to": "0xf93ad36d15378bb60f90e505447dd7ed5877d315",
        "gas": "0xc3476",
        "value": "0x0",
        "input": "0xdad8583d0000000000000000000000000000000000000000000000000000000000000020000000000000000000000000000000000000000000000000000000000000012000000000000000000000000000000000000000000000000000000000000001800000000000000000000000000000000000000000000000000000000000000280000000000000000000000000000000000000000000000000d02ab486cedc0000000000000000000000000000890075515df73a09847a143f2b4b8579167d55390000000000000000000000000000000000000000000000000000000000000006000000000000000000000000000000000000000000000000000000006a17431b000000000000000000000000000000000000000000000000000000000000000300000000000000000000000000000000000000000000000000000000000002c0000000000000000000000000000000000000000000000000000000000000002a54657374204a756d6961204e69676572696120436865636b6f757420466c6f77206f6e204d6f62696c650000000000000000000000000000000000000000000000000000000000000000000000000000000000000000000000000000000000cc4f6e20796f757220416e64726f69642070686f6e653a207669736974206a756d69612e636f6d2e6e672c2073656172636820612070726f647563742c2061646420746f20636172742c20676f20746f20636865636b6f75742028646f204e4f5420636f6d706c657465207075726368617365292c2073637265656e73686f74206561636820737465702e20506f7374206120746872656164206f6e20582f54776974746572207769746820796f75722066696e64696e67732c2074616767696e6720407665726b6f6170702e000000000000000000000000000000000000000000000000000000000000000000000000000000000000000000000000000000104d7973746572792053686f7070696e67000000000000000000000000000000000000000000000000000000000000000000000000000000000000000000000042506f7374206f6e20582f547769747465722074616767696e6720407665726b6f61707020616e6420706173746520796f75722074776565742055524c20686572652e000000000000000000000000000000000000000000000000000000000000",
        "nonce": "0xf",
        "chainId": "0xaa044c"
      },
      "additionalContracts": [],
      "isFixedGasLimit": false
    }
  ],
  "receipts": [
    {
      "status": "0x1",
      "cumulativeGasUsed": "0x16ad0",
      "logs": [
        {
          "address": "0x890075515df73a09847a143f2b4b8579167d5539",
          "topics": [
            "0x8c5be1e5ebec7d5bd14f71427d1e84f3dd0314c0f7b2291e5b200ac8c7c3b925",
            "0x0000000000000000000000008b3ecf29f52c6c4943dbad4f34d8b79077c238dd",
            "0x000000000000000000000000f93ad36d15378bb60f90e505447dd7ed5877d315"
          ],
          "data": "0x000000000000000000000000000000000000000000000025fb9c5dbe85320000",
          "blockHash": "0xa1a100f2e2a841a89f889bf3e3f040ed6d627ece6bb801f423c8d062489b136b",
          "blockNumber": "0x193a2db",
          "blockTimestamp": "0x6a14a06f",
          "transactionHash": "0x019720a51469618c141f00fc6195c439ec156783c748f24f98c1628221298c68",
          "transactionIndex": "0x1",
          "logIndex": "0x0",
          "removed": false
        }
      ],
      "logsBloom": "0x00000000000000000000004000000000000000000000000000000200000000000000000000000000000000000200000000000000000000400000000000200040000000000000000000000000000004000000000000000000000000000000000000000000000000000000000000000000000000000000000000000000000000000000000000000000000000000000000000000000000000000000000000000000020000000000000000000000000000000000000000000000000000000000000000000000000000000000000000000000000000000040000000000000000000000012000000000000000000001000000000000000000000000000000000000000",
      "type": "0x0",
      "transactionHash": "0x019720a51469618c141f00fc6195c439ec156783c748f24f98c1628221298c68",
      "transactionIndex": "0x1",
      "blockHash": "0xa1a100f2e2a841a89f889bf3e3f040ed6d627ece6bb801f423c8d062489b136b",
      "blockNumber": "0x193a2db",
      "gasUsed": "0xb682",
      "effectiveGasPrice": "0xba44ab640",
      "blobGasUsed": "0x64",
      "from": "0x8b3ecf29f52c6c4943dbad4f34d8b79077c238dd",
      "to": "0x890075515df73a09847a143f2b4b8579167d5539",
      "contractAddress": null,
      "daFootprintGasScalar": "0x1",
      "l1BaseFeeScalar": "0x0",
      "l1BlobBaseFee": "0x3abd13a",
      "l1BlobBaseFeeScalar": "0x0",
      "l1Fee": "0x0",
      "l1GasPrice": "0x39df4194",
      "l1GasUsed": "0x640"
    },
    {
      "status": "0x1",
      "cumulativeGasUsed": "0xa169a",
      "logs": [
        {
          "address": "0x890075515df73a09847a143f2b4b8579167d5539",
          "topics": [
            "0xddf252ad1be2c89b69c2b068fc378daa952ba7f163c4a11628f55a4df523b3ef",
            "0x0000000000000000000000008b3ecf29f52c6c4943dbad4f34d8b79077c238dd",
            "0x000000000000000000000000f93ad36d15378bb60f90e505447dd7ed5877d315"
          ],
          "data": "0x0000000000000000000000000000000000000000000000072ece8ffc23420000",
          "blockHash": "0xa1a100f2e2a841a89f889bf3e3f040ed6d627ece6bb801f423c8d062489b136b",
          "blockNumber": "0x193a2db",
          "blockTimestamp": "0x6a14a06f",
          "transactionHash": "0x676c490d29c7b5f2c42c639b20da2a1c3cfeeed2752997517477b21b8323356b",
          "transactionIndex": "0x2",
          "logIndex": "0x1",
          "removed": false
        },
        {
          "address": "0xf93ad36d15378bb60f90e505447dd7ed5877d315",
          "topics": [
            "0x9ea889c4508163d3292ea68f73c965bffaec4ebaedcd47fb584b4f4dd9eec178",
            "0x0000000000000000000000000000000000000000000000000000000000000001",
            "0x0000000000000000000000008b3ecf29f52c6c4943dbad4f34d8b79077c238dd"
          ],
          "data": "0x00000000000000000000000000000000000000000000000000000000000000010000000000000000000000000000000000000000000000015af1d78b58c4000000000000000000000000000000000000000000000000000000000000000000050000000000000000000000000000000000000000000000000000000000000001",
          "blockHash": "0xa1a100f2e2a841a89f889bf3e3f040ed6d627ece6bb801f423c8d062489b136b",
          "blockNumber": "0x193a2db",
          "blockTimestamp": "0x6a14a06f",
          "transactionHash": "0x676c490d29c7b5f2c42c639b20da2a1c3cfeeed2752997517477b21b8323356b",
          "transactionIndex": "0x2",
          "logIndex": "0x2",
          "removed": false
        }
      ],
      "logsBloom": "0x00000000100000000000004000000000000000000000000000000200000000000000000000000000000004000200000000000000000000400000000000040040000000000020000000000008000004000000000000040000000000000000000000000000000000000000000000000000000000000000000000000050000000000000000000000000000000000000000000000000000000000000000080000000000000000000000000000000000000000000000000000000000000000000000000000002000000000000000000000000000000000040000000001000000040000002000000000000000000001000000000000000000000000000000000000000",
      "type": "0x0",
      "transactionHash": "0x676c490d29c7b5f2c42c639b20da2a1c3cfeeed2752997517477b21b8323356b",
      "transactionIndex": "0x2",
      "blockHash": "0xa1a100f2e2a841a89f889bf3e3f040ed6d627ece6bb801f423c8d062489b136b",
      "blockNumber": "0x193a2db",
      "gasUsed": "0x8abca",
      "effectiveGasPrice": "0xba44ab640",
      "blobGasUsed": "0x187",
      "from": "0x8b3ecf29f52c6c4943dbad4f34d8b79077c238dd",
      "to": "0xf93ad36d15378bb60f90e505447dd7ed5877d315",
      "contractAddress": null,
      "daFootprintGasScalar": "0x1",
      "l1BaseFeeScalar": "0x0",
      "l1BlobBaseFee": "0x3abd13a",
      "l1BlobBaseFeeScalar": "0x0",
      "l1Fee": "0x0",
      "l1GasPrice": "0x39df4194",
      "l1GasUsed": "0x1878"
    },
    {
      "status": "0x1",
      "cumulativeGasUsed": "0x119efa",
      "logs": [
        {
          "address": "0x890075515df73a09847a143f2b4b8579167d5539",
          "topics": [
            "0xddf252ad1be2c89b69c2b068fc378daa952ba7f163c4a11628f55a4df523b3ef",
            "0x0000000000000000000000008b3ecf29f52c6c4943dbad4f34d8b79077c238dd",
            "0x000000000000000000000000f93ad36d15378bb60f90e505447dd7ed5877d315"
          ],
          "data": "0x00000000000000000000000000000000000000000000000a57e1c51928880000",
          "blockHash": "0xa1a100f2e2a841a89f889bf3e3f040ed6d627ece6bb801f423c8d062489b136b",
          "blockNumber": "0x193a2db",
          "blockTimestamp": "0x6a14a06f",
          "transactionHash": "0xaa98dfbb56e491186548f74fd60dade3792ef839451f5a1c3805f2e57a787617",
          "transactionIndex": "0x3",
          "logIndex": "0x3",
          "removed": false
        },
        {
          "address": "0xf93ad36d15378bb60f90e505447dd7ed5877d315",
          "topics": [
            "0x9ea889c4508163d3292ea68f73c965bffaec4ebaedcd47fb584b4f4dd9eec178",
            "0x0000000000000000000000000000000000000000000000000000000000000002",
            "0x0000000000000000000000008b3ecf29f52c6c4943dbad4f34d8b79077c238dd"
          ],
          "data": "0x0000000000000000000000000000000000000000000000000000000000000001000000000000000000000000000000000000000000000000f9ccd8a1c5080000000000000000000000000000000000000000000000000000000000000000000a0000000000000000000000000000000000000000000000000000000000000002",
          "blockHash": "0xa1a100f2e2a841a89f889bf3e3f040ed6d627ece6bb801f423c8d062489b136b",
          "blockNumber": "0x193a2db",
          "blockTimestamp": "0x6a14a06f",
          "transactionHash": "0xaa98dfbb56e491186548f74fd60dade3792ef839451f5a1c3805f2e57a787617",
          "transactionIndex": "0x3",
          "logIndex": "0x4",
          "removed": false
        }
      ],
      "logsBloom": "0x04000000100000000000004000000000000000000000000000000200000000000000000000000000000004000200000000000000000000400000000000000040000000000020000000000008000004000000000000000000000000000000000000000000000000000000000000000000000000000000000000000050000000000000000000000000000000000000000000000000000000000000000080000000000000000000000000000100000000000000000000000000000000000000000000000002000000000000000000000000000000000040000000001000000000000002000000000000000000001000000000000000008000000000000000000000",
      "type": "0x0",
      "transactionHash": "0xaa98dfbb56e491186548f74fd60dade3792ef839451f5a1c3805f2e57a787617",
      "transactionIndex": "0x3",
      "blockHash": "0xa1a100f2e2a841a89f889bf3e3f040ed6d627ece6bb801f423c8d062489b136b",
      "blockNumber": "0x193a2db",
      "gasUsed": "0x78860",
      "effectiveGasPrice": "0xba44ab640",
      "blobGasUsed": "0x150",
      "from": "0x8b3ecf29f52c6c4943dbad4f34d8b79077c238dd",
      "to": "0xf93ad36d15378bb60f90e505447dd7ed5877d315",
      "contractAddress": null,
      "daFootprintGasScalar": "0x1",
      "l1BaseFeeScalar": "0x0",
      "l1BlobBaseFee": "0x3abd13a",
      "l1BlobBaseFeeScalar": "0x0",
      "l1Fee": "0x0",
      "l1GasPrice": "0x39df4194",
      "l1GasUsed": "0x1505"
    },
    {
      "status": "0x1",
      "cumulativeGasUsed": "0x18d883",
      "logs": [
        {
          "address": "0x890075515df73a09847a143f2b4b8579167d5539",
          "topics": [
            "0xddf252ad1be2c89b69c2b068fc378daa952ba7f163c4a11628f55a4df523b3ef",
            "0x0000000000000000000000008b3ecf29f52c6c4943dbad4f34d8b79077c238dd",
            "0x000000000000000000000000f93ad36d15378bb60f90e505447dd7ed5877d315"
          ],
          "data": "0x0000000000000000000000000000000000000000000000052bf0e28c94440000",
          "blockHash": "0xa1a100f2e2a841a89f889bf3e3f040ed6d627ece6bb801f423c8d062489b136b",
          "blockNumber": "0x193a2db",
          "blockTimestamp": "0x6a14a06f",
          "transactionHash": "0xe78649fa6e40f3254f8218eafeb0fbb75cdde90dcdaa0e7b0f12b65f395f0537",
          "transactionIndex": "0x4",
          "logIndex": "0x5",
          "removed": false
        },
        {
          "address": "0xf93ad36d15378bb60f90e505447dd7ed5877d315",
          "topics": [
            "0x9ea889c4508163d3292ea68f73c965bffaec4ebaedcd47fb584b4f4dd9eec178",
            "0x0000000000000000000000000000000000000000000000000000000000000003",
            "0x0000000000000000000000008b3ecf29f52c6c4943dbad4f34d8b79077c238dd"
          ],
          "data": "0x0000000000000000000000000000000000000000000000000000000000000001000000000000000000000000000000000000000000000001a055690d9db8000000000000000000000000000000000000000000000000000000000000000000030000000000000000000000000000000000000000000000000000000000000000",
          "blockHash": "0xa1a100f2e2a841a89f889bf3e3f040ed6d627ece6bb801f423c8d062489b136b",
          "blockNumber": "0x193a2db",
          "blockTimestamp": "0x6a14a06f",
          "transactionHash": "0xe78649fa6e40f3254f8218eafeb0fbb75cdde90dcdaa0e7b0f12b65f395f0537",
          "transactionIndex": "0x4",
          "logIndex": "0x6",
          "removed": false
        }
      ],
      "logsBloom": "0x00000000100000000000004000000000000000000000000000000200000000000000000000000000000004000200000000000000020000400000000000000040000000000020000000000008000004000000000000000000000000000000000000000000000000000000000000000000000000000000000000000050000000000000000000000000000000000000000000000000000000000000000080000000000000000000000000000000000000000000000000800000000000000000400000000002000000000000000000000000000000000040000000001000000000000002000000000000000000001000000000000000000000000000000000000000",
      "type": "0x0",
      "transactionHash": "0xe78649fa6e40f3254f8218eafeb0fbb75cdde90dcdaa0e7b0f12b65f395f0537",
      "transactionIndex": "0x4",
      "blockHash": "0xa1a100f2e2a841a89f889bf3e3f040ed6d627ece6bb801f423c8d062489b136b",
      "blockNumber": "0x193a2db",
      "gasUsed": "0x73989",
      "effectiveGasPrice": "0xba44ab640",
      "blobGasUsed": "0x13b",
      "from": "0x8b3ecf29f52c6c4943dbad4f34d8b79077c238dd",
      "to": "0xf93ad36d15378bb60f90e505447dd7ed5877d315",
      "contractAddress": null,
      "daFootprintGasScalar": "0x1",
      "l1BaseFeeScalar": "0x0",
      "l1BlobBaseFee": "0x3abd13a",
      "l1BlobBaseFeeScalar": "0x0",
      "l1Fee": "0x0",
      "l1GasPrice": "0x39df4194",
      "l1GasUsed": "0x13b6"
    },
    {
      "status": "0x1",
      "cumulativeGasUsed": "0x2168d5",
      "logs": [
        {
          "address": "0x890075515df73a09847a143f2b4b8579167d5539",
          "topics": [
            "0xddf252ad1be2c89b69c2b068fc378daa952ba7f163c4a11628f55a4df523b3ef",
            "0x0000000000000000000000008b3ecf29f52c6c4943dbad4f34d8b79077c238dd",
            "0x000000000000000000000000f93ad36d15378bb60f90e505447dd7ed5877d315"
          ],
          "data": "0x00000000000000000000000000000000000000000000000a1d0a439010e00000",
          "blockHash": "0xa1a100f2e2a841a89f889bf3e3f040ed6d627ece6bb801f423c8d062489b136b",
          "blockNumber": "0x193a2db",
          "blockTimestamp": "0x6a14a06f",
          "transactionHash": "0x2bbaf63b839ab3e5c873e66012d5dbc12d214c917a71f902cab52d19daa67936",
          "transactionIndex": "0x5",
          "logIndex": "0x7",
          "removed": false
        },
        {
          "address": "0xf93ad36d15378bb60f90e505447dd7ed5877d315",
          "topics": [
            "0x9ea889c4508163d3292ea68f73c965bffaec4ebaedcd47fb584b4f4dd9eec178",
            "0x0000000000000000000000000000000000000000000000000000000000000004",
            "0x0000000000000000000000008b3ecf29f52c6c4943dbad4f34d8b79077c238dd"
          ],
          "data": "0x0000000000000000000000000000000000000000000000000000000000000001000000000000000000000000000000000000000000000001314fb3706298000000000000000000000000000000000000000000000000000000000000000000080000000000000000000000000000000000000000000000000000000000000004",
          "blockHash": "0xa1a100f2e2a841a89f889bf3e3f040ed6d627ece6bb801f423c8d062489b136b",
          "blockNumber": "0x193a2db",
          "blockTimestamp": "0x6a14a06f",
          "transactionHash": "0x2bbaf63b839ab3e5c873e66012d5dbc12d214c917a71f902cab52d19daa67936",
          "transactionIndex": "0x5",
          "logIndex": "0x8",
          "removed": false
        }
      ],
      "logsBloom": "0x00000000100000000000004000000000000000000000000000000200000000000000000000000000000004000200000000000000000000400000000000000040000000000020000000000008000004000000000000000000000000000000000008000000000000000000000000000000000000000000000000000050000000000000000000000000000000000000000000000000000000000000000080000000000000000000000000000000000000000000000000000000002000000000000000000002000000000000000000000000000000008040000000001000000000000002000000000000000000001000000000000000000000000000000000000000",
      "type": "0x0",
      "transactionHash": "0x2bbaf63b839ab3e5c873e66012d5dbc12d214c917a71f902cab52d19daa67936",
      "transactionIndex": "0x5",
      "blockHash": "0xa1a100f2e2a841a89f889bf3e3f040ed6d627ece6bb801f423c8d062489b136b",
      "blockNumber": "0x193a2db",
      "gasUsed": "0x89052",
      "effectiveGasPrice": "0xba44ab640",
      "blobGasUsed": "0x177",
      "from": "0x8b3ecf29f52c6c4943dbad4f34d8b79077c238dd",
      "to": "0xf93ad36d15378bb60f90e505447dd7ed5877d315",
      "contractAddress": null,
      "daFootprintGasScalar": "0x1",
      "l1BaseFeeScalar": "0x0",
      "l1BlobBaseFee": "0x3abd13a",
      "l1BlobBaseFeeScalar": "0x0",
      "l1Fee": "0x0",
      "l1GasPrice": "0x39df4194",
      "l1GasUsed": "0x177a"
    },
    {
      "status": "0x1",
      "cumulativeGasUsed": "0x274037",
      "logs": [
        {
          "address": "0xf93ad36d15378bb60f90e505447dd7ed5877d315",
          "topics": [
            "0x9ea889c4508163d3292ea68f73c965bffaec4ebaedcd47fb584b4f4dd9eec178",
            "0x0000000000000000000000000000000000000000000000000000000000000005",
            "0x0000000000000000000000008b3ecf29f52c6c4943dbad4f34d8b79077c238dd"
          ],
          "data": "0x0000000000000000000000000000000000000000000000000000000000000000000000000000000000000000000000000000000000000000000000000000000000000000000000000000000000000000000000000000000000000000000000140000000000000000000000000000000000000000000000000000000000000000",
          "blockHash": "0xa1a100f2e2a841a89f889bf3e3f040ed6d627ece6bb801f423c8d062489b136b",
          "blockNumber": "0x193a2db",
          "blockTimestamp": "0x6a14a06f",
          "transactionHash": "0xf8da00cb5a72b4abfffaf163e976218f7707a95de8f0442366389c2c0943b4db",
          "transactionIndex": "0x6",
          "logIndex": "0x9",
          "removed": false
        }
      ],
      "logsBloom": "0x00000000100000000000004000000000000000000000000000000000000000000000000000000000000004000000000000000000000000000000000000000040000010000020000000000000000000000000000000000000000000000000000000000000000000000000000000000000000000000000000000000040000000000000000000000000000000000000001000000800000000000000000080000000000000000000000000000000000000000000000000000000000000000000000000000000000000000000000000000000000000000040000000001000000000000000000000000000000000000000000000000000000000000000000000000000",
      "type": "0x0",
      "transactionHash": "0xf8da00cb5a72b4abfffaf163e976218f7707a95de8f0442366389c2c0943b4db",
      "transactionIndex": "0x6",
      "blockHash": "0xa1a100f2e2a841a89f889bf3e3f040ed6d627ece6bb801f423c8d062489b136b",
      "blockNumber": "0x193a2db",
      "gasUsed": "0x5d762",
      "effectiveGasPrice": "0xba44ab640",
      "blobGasUsed": "0x129",
      "from": "0x8b3ecf29f52c6c4943dbad4f34d8b79077c238dd",
      "to": "0xf93ad36d15378bb60f90e505447dd7ed5877d315",
      "contractAddress": null,
      "daFootprintGasScalar": "0x1",
      "l1BaseFeeScalar": "0x0",
      "l1BlobBaseFee": "0x3abd13a",
      "l1BlobBaseFeeScalar": "0x0",
      "l1Fee": "0x0",
      "l1GasPrice": "0x39df4194",
      "l1GasUsed": "0x129d"
    },
    {
      "status": "0x1",
      "cumulativeGasUsed": "0x301646",
      "logs": [
        {
          "address": "0x890075515df73a09847a143f2b4b8579167d5539",
          "topics": [
            "0xddf252ad1be2c89b69c2b068fc378daa952ba7f163c4a11628f55a4df523b3ef",
            "0x0000000000000000000000008b3ecf29f52c6c4943dbad4f34d8b79077c238dd",
            "0x000000000000000000000000f93ad36d15378bb60f90e505447dd7ed5877d315"
          ],
          "data": "0x0000000000000000000000000000000000000000000000052bf0e28c94440000",
          "blockHash": "0xa1a100f2e2a841a89f889bf3e3f040ed6d627ece6bb801f423c8d062489b136b",
          "blockNumber": "0x193a2db",
          "blockTimestamp": "0x6a14a06f",
          "transactionHash": "0x3eaae7bd9fe8dbafdf3cfd053a42a79d628e672e699466b04598065fc7a30f96",
          "transactionIndex": "0x7",
          "logIndex": "0xa",
          "removed": false
        },
        {
          "address": "0xf93ad36d15378bb60f90e505447dd7ed5877d315",
          "topics": [
            "0x9ea889c4508163d3292ea68f73c965bffaec4ebaedcd47fb584b4f4dd9eec178",
            "0x0000000000000000000000000000000000000000000000000000000000000006",
            "0x0000000000000000000000008b3ecf29f52c6c4943dbad4f34d8b79077c238dd"
          ],
          "data": "0x0000000000000000000000000000000000000000000000000000000000000001000000000000000000000000000000000000000000000000d02ab486cedc000000000000000000000000000000000000000000000000000000000000000000060000000000000000000000000000000000000000000000000000000000000003",
          "blockHash": "0xa1a100f2e2a841a89f889bf3e3f040ed6d627ece6bb801f423c8d062489b136b",
          "blockNumber": "0x193a2db",
          "blockTimestamp": "0x6a14a06f",
          "transactionHash": "0x3eaae7bd9fe8dbafdf3cfd053a42a79d628e672e699466b04598065fc7a30f96",
          "transactionIndex": "0x7",
          "logIndex": "0xb",
          "removed": false
        }
      ],
      "logsBloom": "0x00000000100000000000004000000000000000000000000000000200000000000000000000000000000004000200000000000000000400400000000000000040000000000020000000000008000004000000000000000000000000000000000000000000000000000000000000000000000000000000000000000050000000000000000400000000000000000000000000000000000000000000000080000000000000000000000000000000000000000000000000000000000000080000000000000002000000000000000000000000000000000040000000001000000000000002000000000000000000001000000000000000000000000000000000000000",
      "type": "0x0",
      "transactionHash": "0x3eaae7bd9fe8dbafdf3cfd053a42a79d628e672e699466b04598065fc7a30f96",
      "transactionIndex": "0x7",
      "blockHash": "0xa1a100f2e2a841a89f889bf3e3f040ed6d627ece6bb801f423c8d062489b136b",
      "blockNumber": "0x193a2db",
      "gasUsed": "0x8d60f",
      "effectiveGasPrice": "0xba44ab640",
      "blobGasUsed": "0x191",
      "from": "0x8b3ecf29f52c6c4943dbad4f34d8b79077c238dd",
      "to": "0xf93ad36d15378bb60f90e505447dd7ed5877d315",
      "contractAddress": null,
      "daFootprintGasScalar": "0x1",
      "l1BaseFeeScalar": "0x0",
      "l1BlobBaseFee": "0x3abd13a",
      "l1BlobBaseFeeScalar": "0x0",
      "l1Fee": "0x0",
      "l1GasPrice": "0x39df4194",
      "l1GasUsed": "0x1919"
    }
  ],
  "libraries": [],
  "pending": [],
  "returns": {},
  "timestamp": 1779736689,
  "chain": 11142220,
  "commit": null
}