{
  "transactions": [
    {
      "hash": "0x8c29f1cf4f9396ca8a17c35333cf0aedc90bb95da2e86ee91afd06d9acb5da67",
      "transactionType": "CALL",
      "contractName": null,
      "contractAddress": "0x2ef7d311d08bf6c9990c46d07c86eb3c9add7cb3",
      "function": "approve(address,uint256)",
      "arguments": [
        "0xe53A148e1ea1933b3e6fdA2a590Bb375956267C7",
        "132500000000000000000"
      ],
      "transaction": {
        "from": "0x8b3ecf29f52c6c4943dbad4f34d8b79077c238dd",
        "to": "0x2ef7d311d08bf6c9990c46d07c86eb3c9add7cb3",
        "gas": "0xf7ea",
        "value": "0x0",
        "input": "0x095ea7b3000000000000000000000000e53a148e1ea1933b3e6fda2a590bb375956267c70000000000000000000000000000000000000000000000072ece8ffc23420000",
        "nonce": "0x14",
        "chainId": "0xaa044c"
      },
      "additionalContracts": [],
      "isFixedGasLimit": false
    },
    {
      "hash": "0xb80ee12de679085061b8d52ed0d4045fd52c1287a4f05e5473c7dbae3f953b43",
      "transactionType": "CALL",
      "contractName": null,
      "contractAddress": "0xe53a148e1ea1933b3e6fda2a590bb375956267c7",
      "function": "createTask((string,string,string,uint256,address,uint32,uint64,uint8,string))",
      "arguments": [
        "(Photograph First Bank Branch - Broad Street Lagos, Visit the First Bank branch on Broad Street, Lagos Island. Take 3 clear photos: (1) exterior signage, (2) entrance, (3) operational hours board. Confirm the branch is open. GPS metadata must be enabled on your phone camera., Photo Verification, 25000000000000000000, 0x2Ef7d311d08bf6C9990c46D07c86eb3c9ADd7Cb3, 5, 1780835738, 1, https://forms.gle/testVerko001)"
      ],
      "transaction": {
        "from": "0x8b3ecf29f52c6c4943dbad4f34d8b79077c238dd",
        "to": "0xe53a148e1ea1933b3e6fda2a590bb375956267c7",
        "gas": "0xbd98c",
        "value": "0x0",
        "input": "0xdad8583d00000000000000000000000000000000000000000000000000000000000000200000000000000000000000000000000000000000000000000000000000000120000000000000000000000000000000000000000000000000000000000000018000000000000000000000000000000000000000000000000000000000000002800000000000000000000000000000000000000000000000015af1d78b58c400000000000000000000000000002ef7d311d08bf6c9990c46d07c86eb3c9add7cb30000000000000000000000000000000000000000000000000000000000000005000000000000000000000000000000000000000000000000000000006a25659a000000000000000000000000000000000000000000000000000000000000000100000000000000000000000000000000000000000000000000000000000002c0000000000000000000000000000000000000000000000000000000000000003150686f746f67726170682046697273742042616e6b204272616e6368202d2042726f616420537472656574204c61676f7300000000000000000000000000000000000000000000000000000000000000000000000000000000000000000000df5669736974207468652046697273742042616e6b206272616e6368206f6e2042726f6164205374726565742c204c61676f732049736c616e642e2054616b65203320636c6561722070686f746f733a20283129206578746572696f72207369676e6167652c2028322920656e7472616e63652c20283329206f7065726174696f6e616c20686f75727320626f6172642e20436f6e6669726d20746865206272616e6368206973206f70656e2e20475053206d65746164617461206d75737420626520656e61626c6564206f6e20796f75722070686f6e652063616d6572612e00000000000000000000000000000000000000000000000000000000000000001250686f746f20566572696669636174696f6e0000000000000000000000000000000000000000000000000000000000000000000000000000000000000000001e68747470733a2f2f666f726d732e676c652f746573745665726b6f3030310000",
        "nonce": "0x15",
        "chainId": "0xaa044c"
      },
      "additionalContracts": [],
      "isFixedGasLimit": false
    },
    {
      "hash": "0xf1aa94a4f1cd48d56b484aed7cffcebfead78523d424022164c991051ce1cb7e",
      "transactionType": "CALL",
      "contractName": null,
      "contractAddress": "0xe53a148e1ea1933b3e6fda2a590bb375956267c7",
      "function": "createTask((string,string,string,uint256,address,uint32,uint64,uint8,string))",
      "arguments": [
        "(Share GoodDollar Awareness Post in Community Groups, Share the GoodDollar introduction message in at least 3 WhatsApp or Telegram community groups. Screenshot each share and paste the confirmation text as your proof. Volunteer task., Community Outreach, 0, 0x0000000000000000000000000000000000000000, 20, 1780922138, 0, )"
      ],
      "transaction": {
        "from": "0x8b3ecf29f52c6c4943dbad4f34d8b79077c238dd",
        "to": "0xe53a148e1ea1933b3e6fda2a590bb375956267c7",
        "gas": "0x88c16",
        "value": "0x0",
        "input": "0xdad8583d0000000000000000000000000000000000000000000000000000000000000020000000000000000000000000000000000000000000000000000000000000012000000000000000000000000000000000000000000000000000000000000001800000000000000000000000000000000000000000000000000000000000000260000000000000000000000000000000000000000000000000000000000000000000000000000000000000000000000000000000000000000000000000000000000000000000000000000000000000000000000000000000000000000000000014000000000000000000000000000000000000000000000000000000006a26b71a000000000000000000000000000000000000000000000000000000000000000000000000000000000000000000000000000000000000000000000000000002a00000000000000000000000000000000000000000000000000000000000000033536861726520476f6f64446f6c6c61722041776172656e65737320506f737420696e20436f6d6d756e6974792047726f7570730000000000000000000000000000000000000000000000000000000000000000000000000000000000000000b353686172652074686520476f6f64446f6c6c617220696e74726f64756374696f6e206d65737361676520696e206174206c656173742033205768617473417070206f722054656c656772616d20636f6d6d756e6974792067726f7570732e2053637265656e73686f74206561636820736861726520616e642070617374652074686520636f6e6669726d6174696f6e207465787420617320796f75722070726f6f662e20566f6c756e74656572207461736b2e000000000000000000000000000000000000000000000000000000000000000000000000000000000000000012436f6d6d756e697479204f7574726561636800000000000000000000000000000000000000000000000000000000000000000000000000000000000000000000",
        "nonce": "0x16",
        "chainId": "0xaa044c"
      },
      "additionalContracts": [],
      "isFixedGasLimit": false
    }
  ],
  "receipts": [
    {
      "status": "0x1",
      "cumulativeGasUsed": "0x167cb",
      "logs": [
        {
          "address": "0x2ef7d311d08bf6c9990c46d07c86eb3c9add7cb3",
          "topics": [
            "0x8c5be1e5ebec7d5bd14f71427d1e84f3dd0314c0f7b2291e5b200ac8c7c3b925",
            "0x0000000000000000000000008b3ecf29f52c6c4943dbad4f34d8b79077c238dd",
            "0x000000000000000000000000e53a148e1ea1933b3e6fda2a590bb375956267c7"
          ],
          "data": "0x0000000000000000000000000000000000000000000000072ece8ffc23420000",
          "blockHash": "0x65bcf1e7ce43a1cf1e3bb7f041377b87650bf6225e1f5a6c787d5d04a7dde686",
          "blockNumber": "0x1a073ff",
          "blockTimestamp": "0x6a217193",
          "transactionHash": "0x8c29f1cf4f9396ca8a17c35333cf0aedc90bb95da2e86ee91afd06d9acb5da67",
          "transactionIndex": "0x1",
          "logIndex": "0x0",
          "removed": false
        }
      ],
      "logsBloom": "0x00000000000000000000004000000000000000000000000000000000000000000000000000000000000000000000000000000000000000000000000000200040000000000000000000000000000000000000000000000000000000000000000000000000000000000000000000000000000000000000000000000400000000000000000000000000000000200000000000000000000000000000000000000000020000000001000000000000000000000000000000000000000000000002000000000000000000000000000000000000000000000040000000000400000000000010000000000000000000000000000000000000000000000000000000400000",
      "type": "0x0",
      "transactionHash": "0x8c29f1cf4f9396ca8a17c35333cf0aedc90bb95da2e86ee91afd06d9acb5da67",
      "transactionIndex": "0x1",
      "blockHash": "0x65bcf1e7ce43a1cf1e3bb7f041377b87650bf6225e1f5a6c787d5d04a7dde686",
      "blockNumber": "0x1a073ff",
      "gasUsed": "0xb37d",
      "effectiveGasPrice": "0xc393e6d00",
      "blobGasUsed": "0x64",
      "from": "0x8b3ecf29f52c6c4943dbad4f34d8b79077c238dd",
      "to": "0x2ef7d311d08bf6c9990c46d07c86eb3c9add7cb3",
      "contractAddress": null,
      "daFootprintGasScalar": "0x1",
      "l1BaseFeeScalar": "0x0",
      "l1BlobBaseFee": "0xcd4ae64",
      "l1BlobBaseFeeScalar": "0x0",
      "l1Fee": "0x0",
      "l1GasPrice": "0xcf00ccb0",
      "l1GasUsed": "0x640"
    },
    {
      "status": "0x1",
      "cumulativeGasUsed": "0x9fc08",
      "logs": [
        {
          "address": "0x2ef7d311d08bf6c9990c46d07c86eb3c9add7cb3",
          "topics": [
            "0xddf252ad1be2c89b69c2b068fc378daa952ba7f163c4a11628f55a4df523b3ef",
            "0x0000000000000000000000008b3ecf29f52c6c4943dbad4f34d8b79077c238dd",
            "0x000000000000000000000000e53a148e1ea1933b3e6fda2a590bb375956267c7"
          ],
          "data": "0x0000000000000000000000000000000000000000000000072ece8ffc23420000",
          "blockHash": "0x65bcf1e7ce43a1cf1e3bb7f041377b87650bf6225e1f5a6c787d5d04a7dde686",
          "blockNumber": "0x1a073ff",
          "blockTimestamp": "0x6a217193",
          "transactionHash": "0xb80ee12de679085061b8d52ed0d4045fd52c1287a4f05e5473c7dbae3f953b43",
          "transactionIndex": "0x2",
          "logIndex": "0x1",
          "removed": false
        },
        {
          "address": "0xe53a148e1ea1933b3e6fda2a590bb375956267c7",
          "topics": [
            "0x9ea889c4508163d3292ea68f73c965bffaec4ebaedcd47fb584b4f4dd9eec178",
            "0x0000000000000000000000000000000000000000000000000000000000000001",
            "0x0000000000000000000000008b3ecf29f52c6c4943dbad4f34d8b79077c238dd"
          ],
          "data": "0x00000000000000000000000000000000000000000000000000000000000000010000000000000000000000000000000000000000000000015af1d78b58c4000000000000000000000000000000000000000000000000000000000000000000050000000000000000000000000000000000000000000000000000000000000001",
          "blockHash": "0x65bcf1e7ce43a1cf1e3bb7f041377b87650bf6225e1f5a6c787d5d04a7dde686",
          "blockNumber": "0x1a073ff",
          "blockTimestamp": "0x6a217193",
          "transactionHash": "0xb80ee12de679085061b8d52ed0d4045fd52c1287a4f05e5473c7dbae3f953b43",
          "transactionIndex": "0x2",
          "logIndex": "0x2",
          "removed": false
        }
      ],
      "logsBloom": "0x00000000000000000000004000000000000000000000000000000000000000000000000000000000000000000100000000000000000000000000000000040040000000000020000000000008000000000000000000040000000000000000000000000000000000000000000000000000000000000000000000000450000000000000000000000000000000200000000000000000000000000000000000000000000000000001000000000000000000000000000000000000000000000002000000000002002000000000000000000000000000000040080000001400000040000000000000000000000000000000000000000000000000000000000000400000",
      "type": "0x0",
      "transactionHash": "0xb80ee12de679085061b8d52ed0d4045fd52c1287a4f05e5473c7dbae3f953b43",
      "transactionIndex": "0x2",
      "blockHash": "0x65bcf1e7ce43a1cf1e3bb7f041377b87650bf6225e1f5a6c787d5d04a7dde686",
      "blockNumber": "0x1a073ff",
      "gasUsed": "0x8943d",
      "effectiveGasPrice": "0xc393e6d00",
      "blobGasUsed": "0x187",
      "from": "0x8b3ecf29f52c6c4943dbad4f34d8b79077c238dd",
      "to": "0xe53a148e1ea1933b3e6fda2a590bb375956267c7",
      "contractAddress": null,
      "daFootprintGasScalar": "0x1",
      "l1BaseFeeScalar": "0x0",
      "l1BlobBaseFee": "0xcd4ae64",
      "l1BlobBaseFeeScalar": "0x0",
      "l1Fee": "0x0",
      "l1GasPrice": "0xcf00ccb0",
      "l1GasUsed": "0x1878"
    },
    {
      "status": "0x1",
      "cumulativeGasUsed": "0xfd429",
      "logs": [
        {
          "address": "0xe53a148e1ea1933b3e6fda2a590bb375956267c7",
          "topics": [
            "0x9ea889c4508163d3292ea68f73c965bffaec4ebaedcd47fb584b4f4dd9eec178",
            "0x0000000000000000000000000000000000000000000000000000000000000002",
            "0x0000000000000000000000008b3ecf29f52c6c4943dbad4f34d8b79077c238dd"
          ],
          "data": "0x0000000000000000000000000000000000000000000000000000000000000000000000000000000000000000000000000000000000000000000000000000000000000000000000000000000000000000000000000000000000000000000000140000000000000000000000000000000000000000000000000000000000000000",
          "blockHash": "0x65bcf1e7ce43a1cf1e3bb7f041377b87650bf6225e1f5a6c787d5d04a7dde686",
          "blockNumber": "0x1a073ff",
          "blockTimestamp": "0x6a217193",
          "transactionHash": "0xf1aa94a4f1cd48d56b484aed7cffcebfead78523d424022164c991051ce1cb7e",
          "transactionIndex": "0x3",
          "logIndex": "0x3",
          "removed": false
        }
      ],
      "logsBloom": "0x04000000000000000000004000000000000000000000000000000000000000000000000000000000000000000100000000000000000000000000000000000040000000000020000000000000000000000000000000000000000000000000000000000000000000000000000000000000000000000000000000000040000000000000000000000000000000000000000000000000000000000000000000000000000000000000000000000100000000000000000000000000000000000000000000000000002000000000000000000000000000000040080000001000000000000000000000000000000000000000000000000000008000000000000000000000",
      "type": "0x0",
      "transactionHash": "0xf1aa94a4f1cd48d56b484aed7cffcebfead78523d424022164c991051ce1cb7e",
      "transactionIndex": "0x3",
      "blockHash": "0x65bcf1e7ce43a1cf1e3bb7f041377b87650bf6225e1f5a6c787d5d04a7dde686",
      "blockNumber": "0x1a073ff",
      "gasUsed": "0x5d821",
      "effectiveGasPrice": "0xc393e6d00",
      "blobGasUsed": "0x129",
      "from": "0x8b3ecf29f52c6c4943dbad4f34d8b79077c238dd",
      "to": "0xe53a148e1ea1933b3e6fda2a590bb375956267c7",
      "contractAddress": null,
      "daFootprintGasScalar": "0x1",
      "l1BaseFeeScalar": "0x0",
      "l1BlobBaseFee": "0xcd4ae64",
      "l1BlobBaseFeeScalar": "0x0",
      "l1Fee": "0x0",
      "l1GasPrice": "0xcf00ccb0",
      "l1GasUsed": "0x129d"
    }
  ],
  "libraries": [],
  "pending": [],
  "returns": {},
  "timestamp": 1780576664,
  "chain": 11142220,
  "commit": null
}